{
  "contractName": "SimpleStorage",
  "abi": [
    {
      "constant": false,
      "inputs": [
        {
          "internalType": "string",
          "name": "xhash",
          "type": "string"
        },
        {
          "internalType": "string",
          "name": "nvl",
          "type": "string"
        },
        {
          "internalType": "string",
          "name": "xjrv",
          "type": "string"
        }
      ],
      "name": "set",
      "outputs": [],
      "payable": false,
      "stateMutability": "nonpayable",
      "type": "function"
    },
    {
      "constant": true,
      "inputs": [],
      "name": "get",
      "outputs": [
        {
          "internalType": "string",
          "name": "",
          "type": "string"
        }
      ],
      "payable": false,
      "stateMutability": "view",
      "type": "function"
    }
  ],
  "bytecode": "0x608060405234801561001057600080fd5b50610474806100206000396000f3fe608060405234801561001057600080fd5b50600436106100365760003560e01c80636d4ce63c1461003b578063da465d74146100be575b600080fd5b6100436102a7565b6040518080602001828103825283818151815260200191508051906020019080838360005b83811015610083578082015181840152602081019050610068565b50505050905090810190601f1680156100b05780820380516001836020036101000a031916815260200191505b509250505060405180910390f35b6102a5600480360360608110156100d457600080fd5b81019080803590602001906401000000008111156100f157600080fd5b82018360208201111561010357600080fd5b8035906020019184600183028401116401000000008311171561012557600080fd5b91908080601f016020809104026020016040519081016040528093929190818152602001838380828437600081840152601f19601f8201169050808301925050505050505091929192908035906020019064010000000081111561018857600080fd5b82018360208201111561019a57600080fd5b803590602001918460018302840111640100000000831117156101bc57600080fd5b91908080601f016020809104026020016040519081016040528093929190818152602001838380828437600081840152601f19601f8201169050808301925050505050505091929192908035906020019064010000000081111561021f57600080fd5b82018360208201111561023157600080fd5b8035906020019184600183028401116401000000008311171561025357600080fd5b91908080601f016020809104026020016040519081016040528093929190818152602001838380828437600081840152601f19601f820116905080830192505050505050509192919290505050610349565b005b606060008054600181600116156101000203166002900480601f01602080910402602001604051908101604052809291908181526020018280546001816001161561010002031660029004801561033f5780601f106103145761010080835404028352916020019161033f565b820191906000526020600020905b81548152906001019060200180831161032257829003601f168201915b5050505050905090565b826000908051906020019061035f92919061039a565b5042600181905550816002908051906020019061037d92919061039a565b50806003908051906020019061039492919061039a565b50505050565b828054600181600116156101000203166002900490600052602060002090601f016020900481019282601f106103db57805160ff1916838001178555610409565b82800160010185558215610409579182015b828111156104085782518255916020019190600101906103ed565b5b509050610416919061041a565b5090565b61043c91905b80821115610438576000816000905550600101610420565b5090565b9056fea265627a7a7231582012b4073188b0d587f658bd5ce4133bd50271fe4812ddb6f7decd99f503ba439c64736f6c63430005100032",
  "source": "// SPDX-License-Identifier: MIT\npragma solidity 0.5.16;\n\ncontract SimpleStorage {\n  //quien la esta subiendo\n  string ipfsHash;\n  uint256 date;\n  string nivel;\n  string jrv;\n\n  function set(string memory xhash, string memory nvl, string memory xjrv) public {\n    ipfsHash = xhash;\n    date = now;\n    nivel = nvl;\n    jrv =xjrv;\n  }\n\n  function get() public view returns (string memory) {\n    return ipfsHash;\n  }\n}\n",
  "sourcePath": "C:\\Users\\josez\\OneDrive\\Desktop\\Periodo IV 2021\\Tecnologias Emergentes\\dAppTest\\contracts\\SimpleStorage.sol",
  "compiler": {
    "name": "solc",
    "version": "0.5.16+commit.9c3226ce.Emscripten.clang"
  },
  "schemaVersion": "3.4.3",
  "updatedAt": "2021-12-14T08:18:49.604Z",
  "networkType": "ethereum",
  "devdoc": {
    "methods": {}
  },
  "userdoc": {
    "methods": {}
  }
}