{
  "contractName": "SimpleStorage",
  "abi": [
    {
      "constant": false,
      "inputs": [
        {
          "internalType": "string",
          "name": "_ipfsHash",
          "type": "string"
        },
        {
          "internalType": "string",
          "name": "_nivel",
          "type": "string"
        },
        {
          "internalType": "string",
          "name": "_jrv",
          "type": "string"
        }
      ],
      "name": "addActa",
      "outputs": [],
      "payable": false,
      "stateMutability": "nonpayable",
      "type": "function"
    },
    {
      "constant": true,
      "inputs": [
        {
          "internalType": "string",
          "name": "_jrv",
          "type": "string"
        },
        {
          "internalType": "string",
          "name": "_nivel",
          "type": "string"
        }
      ],
      "name": "get",
      "outputs": [
        {
          "components": [
            {
              "internalType": "bool",
              "name": "exists",
              "type": "bool"
            },
            {
              "internalType": "string",
              "name": "ipfsHash",
              "type": "string"
            },
            {
              "internalType": "uint256",
              "name": "date",
              "type": "uint256"
            },
            {
              "internalType": "address",
              "name": "sender",
              "type": "address"
            }
          ],
          "internalType": "struct SimpleStorage.Acta",
          "name": "",
          "type": "tuple"
        }
      ],
      "payable": false,
      "stateMutability": "view",
      "type": "function"
    }
  ],
  "bytecode": "0x608060405234801561001057600080fd5b506107db806100206000396000f3fe608060405234801561001057600080fd5b50600436106100365760003560e01c80633e10510b1461003b57806388daba671461006b575b600080fd5b6100556004803603610050919081019061043c565b610087565b6040516100629190610650565b60405180910390f35b610085600480360361008091908101906104a8565b6101f9565b005b61008f610303565b60008360405161009f9190610639565b9081526020016040518091039020826040516100bb9190610639565b90815260200160405180910390206040518060800160405290816000820160009054906101000a900460ff16151515158152602001600182018054600181600116156101000203166002900480601f0160208091040260200160405190810160405280929190818152602001828054600181600116156101000203166002900480156101885780601f1061015d57610100808354040283529160200191610188565b820191906000526020600020905b81548152906001019060200180831161016b57829003601f168201915b50505050508152602001600282015481526020016003820160009054906101000a900473ffffffffffffffffffffffffffffffffffffffff1673ffffffffffffffffffffffffffffffffffffffff1673ffffffffffffffffffffffffffffffffffffffff1681525050905092915050565b60405180608001604052806001151581526020018481526020014281526020013373ffffffffffffffffffffffffffffffffffffffff168152506000826040516102439190610639565b90815260200160405180910390208360405161025f9190610639565b908152602001604051809103902060008201518160000160006101000a81548160ff02191690831515021790555060208201518160010190805190602001906102a9929190610343565b506040820151816002015560608201518160030160006101000a81548173ffffffffffffffffffffffffffffffffffffffff021916908373ffffffffffffffffffffffffffffffffffffffff160217905550905050505050565b60405180608001604052806000151581526020016060815260200160008152602001600073ffffffffffffffffffffffffffffffffffffffff1681525090565b828054600181600116156101000203166002900490600052602060002090601f016020900481019282601f1061038457805160ff19168380011785556103b2565b828001600101855582156103b2579182015b828111156103b1578251825591602001919060010190610396565b5b5090506103bf91906103c3565b5090565b6103e591905b808211156103e15760008160009055506001016103c9565b5090565b90565b600082601f8301126103f957600080fd5b813561040c6104078261069f565b610672565b9150808252602083016020830185838301111561042857600080fd5b610433838284610745565b50505092915050565b6000806040838503121561044f57600080fd5b600083013567ffffffffffffffff81111561046957600080fd5b610475858286016103e8565b925050602083013567ffffffffffffffff81111561049257600080fd5b61049e858286016103e8565b9150509250929050565b6000806000606084860312156104bd57600080fd5b600084013567ffffffffffffffff8111156104d757600080fd5b6104e3868287016103e8565b935050602084013567ffffffffffffffff81111561050057600080fd5b61050c868287016103e8565b925050604084013567ffffffffffffffff81111561052957600080fd5b610535868287016103e8565b9150509250925092565b610548816106fd565b82525050565b6105578161070f565b82525050565b6000610568826106d6565b61057281856106f2565b9350610582818560208601610754565b80840191505092915050565b6000610599826106cb565b6105a381856106e1565b93506105b3818560208601610754565b6105bc81610787565b840191505092915050565b60006080830160008301516105df600086018261054e565b50602083015184820360208601526105f7828261058e565b915050604083015161060c604086018261062a565b50606083015161061f606086018261053f565b508091505092915050565b6106338161073b565b82525050565b6000610645828461055d565b915081905092915050565b6000602082019050818103600083015261066a81846105c7565b905092915050565b6000604051905081810181811067ffffffffffffffff8211171561069557600080fd5b8060405250919050565b600067ffffffffffffffff8211156106b657600080fd5b601f19601f8301169050602081019050919050565b600081519050919050565b600081519050919050565b600082825260208201905092915050565b600081905092915050565b60006107088261071b565b9050919050565b60008115159050919050565b600073ffffffffffffffffffffffffffffffffffffffff82169050919050565b6000819050919050565b82818337600083830152505050565b60005b83811015610772578082015181840152602081019050610757565b83811115610781576000848401525b50505050565b6000601f19601f830116905091905056fea365627a7a72315820e89aaa6dccab3b9d9e8f28cbea80ff9657c8a8add39da433c49a1770d2d146536c6578706572696d656e74616cf564736f6c63430005100040",
  "source": "// SPDX-License-Identifier: MIT\npragma experimental ABIEncoderV2;\n\ncontract SimpleStorage {\n  struct Acta {\n    bool exists;\n    string ipfsHash;\n    uint256 date;\n    //string jrv;\n    address sender;\n  }\n\n  mapping(string => mapping(string => Acta)) Actas;\n\n  function addActa(string memory _ipfsHash, string memory _nivel, string memory _jrv) public {\n    Actas[_jrv][_nivel] = Acta({exists: true, ipfsHash: _ipfsHash, date: block.timestamp, sender: msg.sender});\n  }\n\n  function get(string memory _jrv, string memory _nivel) public view returns (Acta memory) {\n    return Actas[_jrv][_nivel];\n  }\n}\n",
  "sourcePath": "C:\\Users\\josez\\OneDrive\\Desktop\\Periodo IV 2021\\Tecnologias Emergentes\\dAppTest\\contracts\\SimpleStorage.sol",
  "compiler": {
    "name": "solc",
    "version": "0.5.16+commit.9c3226ce.Emscripten.clang"
  },
  "schemaVersion": "3.4.3",
  "updatedAt": "2021-12-18T18:43:34.083Z",
  "networkType": "ethereum",
  "devdoc": {
    "methods": {}
  },
  "userdoc": {
    "methods": {}
  }
}