{
  "contractName": "SimpleStorage",
  "abi": [
    {
      "constant": false,
      "inputs": [
        {
          "internalType": "string",
          "name": "_ipfsHash",
          "type": "string"
        },
        {
          "internalType": "string",
          "name": "_nivel",
          "type": "string"
        },
        {
          "internalType": "string",
          "name": "_jrv",
          "type": "string"
        }
      ],
      "name": "addActa",
      "outputs": [],
      "payable": false,
      "stateMutability": "nonpayable",
      "type": "function"
    },
    {
      "constant": true,
      "inputs": [
        {
          "internalType": "string",
          "name": "_jrv",
          "type": "string"
        },
        {
          "internalType": "string",
          "name": "_nivel",
          "type": "string"
        }
      ],
      "name": "get",
      "outputs": [
        {
          "components": [
            {
              "internalType": "bool",
              "name": "exists",
              "type": "bool"
            },
            {
              "internalType": "string",
              "name": "ipfsHash",
              "type": "string"
            },
            {
              "internalType": "uint256",
              "name": "date",
              "type": "uint256"
            },
            {
              "internalType": "address",
              "name": "sender",
              "type": "address"
            }
          ],
          "internalType": "struct SimpleStorage.Acta",
          "name": "",
          "type": "tuple"
        }
      ],
      "payable": false,
      "stateMutability": "view",
      "type": "function"
    }
  ],
  "bytecode": "0x608060405234801561001057600080fd5b5061082b806100206000396000f3fe608060405234801561001057600080fd5b50600436106100365760003560e01c80633e10510b1461003b57806388daba671461006b575b600080fd5b6100556004803603610050919081019061048c565b610087565b60405161006291906106a0565b60405180910390f35b610085600480360361008091908101906104f8565b6101f9565b005b61008f610353565b60008360405161009f9190610689565b9081526020016040518091039020826040516100bb9190610689565b90815260200160405180910390206040518060800160405290816000820160009054906101000a900460ff16151515158152602001600182018054600181600116156101000203166002900480601f0160208091040260200160405190810160405280929190818152602001828054600181600116156101000203166002900480156101885780601f1061015d57610100808354040283529160200191610188565b820191906000526020600020905b81548152906001019060200180831161016b57829003601f168201915b50505050508152602001600282015481526020016003820160009054906101000a900473ffffffffffffffffffffffffffffffffffffffff1673ffffffffffffffffffffffffffffffffffffffff1673ffffffffffffffffffffffffffffffffffffffff1681525050905092915050565b6000816040516102099190610689565b9081526020016040518091039020826040516102259190610689565b908152602001604051809103902060000160009054906101000a900460ff1661034e5760405180608001604052806001151581526020018481526020014281526020013373ffffffffffffffffffffffffffffffffffffffff168152506000826040516102929190610689565b9081526020016040518091039020836040516102ae9190610689565b908152602001604051809103902060008201518160000160006101000a81548160ff02191690831515021790555060208201518160010190805190602001906102f8929190610393565b506040820151816002015560608201518160030160006101000a81548173ffffffffffffffffffffffffffffffffffffffff021916908373ffffffffffffffffffffffffffffffffffffffff1602179055509050505b505050565b60405180608001604052806000151581526020016060815260200160008152602001600073ffffffffffffffffffffffffffffffffffffffff1681525090565b828054600181600116156101000203166002900490600052602060002090601f016020900481019282601f106103d457805160ff1916838001178555610402565b82800160010185558215610402579182015b828111156104015782518255916020019190600101906103e6565b5b50905061040f9190610413565b5090565b61043591905b80821115610431576000816000905550600101610419565b5090565b90565b600082601f83011261044957600080fd5b813561045c610457826106ef565b6106c2565b9150808252602083016020830185838301111561047857600080fd5b610483838284610795565b50505092915050565b6000806040838503121561049f57600080fd5b600083013567ffffffffffffffff8111156104b957600080fd5b6104c585828601610438565b925050602083013567ffffffffffffffff8111156104e257600080fd5b6104ee85828601610438565b9150509250929050565b60008060006060848603121561050d57600080fd5b600084013567ffffffffffffffff81111561052757600080fd5b61053386828701610438565b935050602084013567ffffffffffffffff81111561055057600080fd5b61055c86828701610438565b925050604084013567ffffffffffffffff81111561057957600080fd5b61058586828701610438565b9150509250925092565b6105988161074d565b82525050565b6105a78161075f565b82525050565b60006105b882610726565b6105c28185610742565b93506105d28185602086016107a4565b80840191505092915050565b60006105e98261071b565b6105f38185610731565b93506106038185602086016107a4565b61060c816107d7565b840191505092915050565b600060808301600083015161062f600086018261059e565b506020830151848203602086015261064782826105de565b915050604083015161065c604086018261067a565b50606083015161066f606086018261058f565b508091505092915050565b6106838161078b565b82525050565b600061069582846105ad565b915081905092915050565b600060208201905081810360008301526106ba8184610617565b905092915050565b6000604051905081810181811067ffffffffffffffff821117156106e557600080fd5b8060405250919050565b600067ffffffffffffffff82111561070657600080fd5b601f19601f8301169050602081019050919050565b600081519050919050565b600081519050919050565b600082825260208201905092915050565b600081905092915050565b60006107588261076b565b9050919050565b60008115159050919050565b600073ffffffffffffffffffffffffffffffffffffffff82169050919050565b6000819050919050565b82818337600083830152505050565b60005b838110156107c25780820151818401526020810190506107a7565b838111156107d1576000848401525b50505050565b6000601f19601f830116905091905056fea365627a7a72315820535cdf3761cac50cc8546fb39647a29ec495b68d59ea36a8e64ea62d03a32c6e6c6578706572696d656e74616cf564736f6c63430005100040",
  "source": "// SPDX-License-Identifier: MIT\npragma experimental ABIEncoderV2;\n\ncontract SimpleStorage {\n  struct Acta {\n    bool exists;\n    string ipfsHash;\n    uint256 date;\n    //string jrv;\n    address sender;\n  }\n\n  mapping(string => mapping(string => Acta)) Actas;\n\n  function addActa(string memory _ipfsHash, string memory _nivel, string memory _jrv) public {\n    if (!Actas[_jrv][_nivel].exists) {\n      Actas[_jrv][_nivel] = Acta({exists: true, ipfsHash: _ipfsHash, date: block.timestamp, sender: msg.sender});\n    } \n  }\n\n  function get(string memory _jrv, string memory _nivel) public view returns (Acta memory) {\n    return Actas[_jrv][_nivel];\n  }\n}\n",
  "sourcePath": "C:\\Users\\josez\\OneDrive\\Desktop\\Periodo IV 2021\\Tecnologias Emergentes\\dAppTest\\contracts\\SimpleStorage.sol",
  "compiler": {
    "name": "solc",
    "version": "0.5.16+commit.9c3226ce.Emscripten.clang"
  },
  "schemaVersion": "3.4.3",
  "updatedAt": "2021-12-19T21:48:46.196Z",
  "networkType": "ethereum",
  "devdoc": {
    "methods": {}
  },
  "userdoc": {
    "methods": {}
  }
}